{
	"FundMe1.sol": {
		"FundMe": {
			"abi": [
				{
					"inputs": [],
					"name": "fund",
					"outputs": [],
					"stateMutability": "payable",
					"type": "function"
				},
				{
					"inputs": [],
					"name": "getPrice",
					"outputs": [
						{
							"internalType": "uint256",
							"name": "",
							"type": "uint256"
						}
					],
					"stateMutability": "view",
					"type": "function"
				},
				{
					"inputs": [],
					"name": "minimumUsd",
					"outputs": [
						{
							"internalType": "uint256",
							"name": "",
							"type": "uint256"
						}
					],
					"stateMutability": "view",
					"type": "function"
				}
			],
			"devdoc": {
				"kind": "dev",
				"methods": {},
				"version": 1
			},
			"evm": {
				"assembly": "    /* \"FundMe1.sol\":172:583  contract FundMe{... */\n  mstore(0x40, 0x80)\n    /* \"FundMe1.sol\":222:223  5 */\n  0x05\n    /* \"FundMe1.sol\":194:223  uint256 public minimumUsd = 5 */\n  0x00\n  sstore\n    /* \"FundMe1.sol\":172:583  contract FundMe{... */\n  callvalue\n  dup1\n  iszero\n  tag_1\n  jumpi\n  0x00\n  dup1\n  revert\ntag_1:\n  pop\n  dataSize(sub_0)\n  dup1\n  dataOffset(sub_0)\n  0x00\n  codecopy\n  0x00\n  return\nstop\n\nsub_0: assembly {\n        /* \"FundMe1.sol\":172:583  contract FundMe{... */\n      mstore(0x40, 0x80)\n      jumpi(tag_1, lt(calldatasize, 0x04))\n      shr(0xe0, calldataload(0x00))\n      dup1\n      0x098de820\n      eq\n      tag_2\n      jumpi\n      dup1\n      0x98d5fdca\n      eq\n      tag_3\n      jumpi\n      dup1\n      0xb60d4288\n      eq\n      tag_4\n      jumpi\n    tag_1:\n      0x00\n      dup1\n      revert\n        /* \"FundMe1.sol\":194:223  uint256 public minimumUsd = 5 */\n    tag_2:\n      callvalue\n      dup1\n      iszero\n      tag_5\n      jumpi\n      0x00\n      dup1\n      revert\n    tag_5:\n      pop\n      tag_6\n      tag_7\n      jump\t// in\n    tag_6:\n      mload(0x40)\n      tag_8\n      swap2\n      swap1\n      tag_9\n      jump\t// in\n    tag_8:\n      mload(0x40)\n      dup1\n      swap2\n      sub\n      swap1\n      return\n        /* \"FundMe1.sol\":350:581  function getPrice() public view returns(uint256){... */\n    tag_3:\n      callvalue\n      dup1\n      iszero\n      tag_10\n      jumpi\n      0x00\n      dup1\n      revert\n    tag_10:\n      pop\n      tag_11\n      tag_12\n      jump\t// in\n    tag_11:\n      mload(0x40)\n      tag_13\n      swap2\n      swap1\n      tag_9\n      jump\t// in\n    tag_13:\n      mload(0x40)\n      dup1\n      swap2\n      sub\n      swap1\n      return\n        /* \"FundMe1.sol\":229:340  function fund() public payable {... */\n    tag_4:\n      tag_14\n      tag_15\n      jump\t// in\n    tag_14:\n      stop\n        /* \"FundMe1.sol\":194:223  uint256 public minimumUsd = 5 */\n    tag_7:\n      sload(0x00)\n      dup2\n      jump\t// out\n        /* \"FundMe1.sol\":350:581  function getPrice() public view returns(uint256){... */\n    tag_12:\n        /* \"FundMe1.sol\":390:397  uint256 */\n      0x00\n        /* \"FundMe1.sol\":475:506  AggregatorV3Interface priceFeed */\n      dup1\n        /* \"FundMe1.sol\":531:573  0x694AA1769357215DE4FAC081bf1f309aDC325306 */\n      0x694aa1769357215de4fac081bf1f309adc325306\n        /* \"FundMe1.sol\":475:574  AggregatorV3Interface priceFeed = AggregatorV3Interface(0x694AA1769357215DE4FAC081bf1f309aDC325306) */\n      swap1\n      pop\n        /* \"FundMe1.sol\":398:581  {... */\n      pop\n        /* \"FundMe1.sol\":350:581  function getPrice() public view returns(uint256){... */\n      swap1\n      jump\t// out\n        /* \"FundMe1.sol\":229:340  function fund() public payable {... */\n    tag_15:\n        /* \"FundMe1.sol\":291:301  minimumUsd */\n      sload(0x00)\n        /* \"FundMe1.sol\":278:287  msg.value */\n      callvalue\n        /* \"FundMe1.sol\":278:301  msg.value >= minimumUsd */\n      lt\n      iszero\n        /* \"FundMe1.sol\":270:328  require(msg.value >= minimumUsd, \"Didn't send enough ETH\") */\n      tag_18\n      jumpi\n      mload(0x40)\n      0x08c379a000000000000000000000000000000000000000000000000000000000\n      dup2\n      mstore\n      0x04\n      add\n      tag_19\n      swap1\n      tag_20\n      jump\t// in\n    tag_19:\n      mload(0x40)\n      dup1\n      swap2\n      sub\n      swap1\n      revert\n    tag_18:\n        /* \"FundMe1.sol\":229:340  function fund() public payable {... */\n      jump\t// out\n        /* \"#utility.yul\":7:84   */\n    tag_21:\n        /* \"#utility.yul\":44:51   */\n      0x00\n        /* \"#utility.yul\":73:78   */\n      dup2\n        /* \"#utility.yul\":62:78   */\n      swap1\n      pop\n        /* \"#utility.yul\":7:84   */\n      swap2\n      swap1\n      pop\n      jump\t// out\n        /* \"#utility.yul\":90:208   */\n    tag_22:\n        /* \"#utility.yul\":177:201   */\n      tag_29\n        /* \"#utility.yul\":195:200   */\n      dup2\n        /* \"#utility.yul\":177:201   */\n      tag_21\n      jump\t// in\n    tag_29:\n        /* \"#utility.yul\":172:175   */\n      dup3\n        /* \"#utility.yul\":165:202   */\n      mstore\n        /* \"#utility.yul\":90:208   */\n      pop\n      pop\n      jump\t// out\n        /* \"#utility.yul\":214:436   */\n    tag_9:\n        /* \"#utility.yul\":307:311   */\n      0x00\n        /* \"#utility.yul\":345:347   */\n      0x20\n        /* \"#utility.yul\":334:343   */\n      dup3\n        /* \"#utility.yul\":330:348   */\n      add\n        /* \"#utility.yul\":322:348   */\n      swap1\n      pop\n        /* \"#utility.yul\":358:429   */\n      tag_31\n        /* \"#utility.yul\":426:427   */\n      0x00\n        /* \"#utility.yul\":415:424   */\n      dup4\n        /* \"#utility.yul\":411:428   */\n      add\n        /* \"#utility.yul\":402:408   */\n      dup5\n        /* \"#utility.yul\":358:429   */\n      tag_22\n      jump\t// in\n    tag_31:\n        /* \"#utility.yul\":214:436   */\n      swap3\n      swap2\n      pop\n      pop\n      jump\t// out\n        /* \"#utility.yul\":442:611   */\n    tag_23:\n        /* \"#utility.yul\":526:537   */\n      0x00\n        /* \"#utility.yul\":560:566   */\n      dup3\n        /* \"#utility.yul\":555:558   */\n      dup3\n        /* \"#utility.yul\":548:567   */\n      mstore\n        /* \"#utility.yul\":600:604   */\n      0x20\n        /* \"#utility.yul\":595:598   */\n      dup3\n        /* \"#utility.yul\":591:605   */\n      add\n        /* \"#utility.yul\":576:605   */\n      swap1\n      pop\n        /* \"#utility.yul\":442:611   */\n      swap3\n      swap2\n      pop\n      pop\n      jump\t// out\n        /* \"#utility.yul\":617:789   */\n    tag_24:\n        /* \"#utility.yul\":757:781   */\n      0x4469646e27742073656e6420656e6f7567682045544800000000000000000000\n        /* \"#utility.yul\":753:754   */\n      0x00\n        /* \"#utility.yul\":745:751   */\n      dup3\n        /* \"#utility.yul\":741:755   */\n      add\n        /* \"#utility.yul\":734:782   */\n      mstore\n        /* \"#utility.yul\":617:789   */\n      pop\n      jump\t// out\n        /* \"#utility.yul\":795:1161   */\n    tag_25:\n        /* \"#utility.yul\":937:940   */\n      0x00\n        /* \"#utility.yul\":958:1025   */\n      tag_35\n        /* \"#utility.yul\":1022:1024   */\n      0x16\n        /* \"#utility.yul\":1017:1020   */\n      dup4\n        /* \"#utility.yul\":958:1025   */\n      tag_23\n      jump\t// in\n    tag_35:\n        /* \"#utility.yul\":951:1025   */\n      swap2\n      pop\n        /* \"#utility.yul\":1034:1127   */\n      tag_36\n        /* \"#utility.yul\":1123:1126   */\n      dup3\n        /* \"#utility.yul\":1034:1127   */\n      tag_24\n      jump\t// in\n    tag_36:\n        /* \"#utility.yul\":1152:1154   */\n      0x20\n        /* \"#utility.yul\":1147:1150   */\n      dup3\n        /* \"#utility.yul\":1143:1155   */\n      add\n        /* \"#utility.yul\":1136:1155   */\n      swap1\n      pop\n        /* \"#utility.yul\":795:1161   */\n      swap2\n      swap1\n      pop\n      jump\t// out\n        /* \"#utility.yul\":1167:1586   */\n    tag_20:\n        /* \"#utility.yul\":1333:1337   */\n      0x00\n        /* \"#utility.yul\":1371:1373   */\n      0x20\n        /* \"#utility.yul\":1360:1369   */\n      dup3\n        /* \"#utility.yul\":1356:1374   */\n      add\n        /* \"#utility.yul\":1348:1374   */\n      swap1\n      pop\n        /* \"#utility.yul\":1420:1429   */\n      dup2\n        /* \"#utility.yul\":1414:1418   */\n      dup2\n        /* \"#utility.yul\":1410:1430   */\n      sub\n        /* \"#utility.yul\":1406:1407   */\n      0x00\n        /* \"#utility.yul\":1395:1404   */\n      dup4\n        /* \"#utility.yul\":1391:1408   */\n      add\n        /* \"#utility.yul\":1384:1431   */\n      mstore\n        /* \"#utility.yul\":1448:1579   */\n      tag_38\n        /* \"#utility.yul\":1574:1578   */\n      dup2\n        /* \"#utility.yul\":1448:1579   */\n      tag_25\n      jump\t// in\n    tag_38:\n        /* \"#utility.yul\":1440:1579   */\n      swap1\n      pop\n        /* \"#utility.yul\":1167:1586   */\n      swap2\n      swap1\n      pop\n      jump\t// out\n\n    auxdata: 0xa2646970667358221220b1aa568c614213d775025741c57fbdb853ccc40f80b3423c8b226a9a0f427c4964736f6c63430008180033\n}\n",
				"bytecode": {
					"linkReferences": {},
					"object": "608060405260055f55348015610013575f80fd5b506101dc806100215f395ff3fe608060405260043610610033575f3560e01c8063098de8201461003757806398d5fdca14610061578063b60d42881461008b575b5f80fd5b348015610042575f80fd5b5061004b610095565b6040516100589190610115565b60405180910390f35b34801561006c575f80fd5b5061007561009a565b6040516100829190610115565b60405180910390f35b6100936100b7565b005b5f5481565b5f8073694aa1769357215de4fac081bf1f309adc32530690505090565b5f543410156100fb576040517f08c379a00000000000000000000000000000000000000000000000000000000081526004016100f290610188565b60405180910390fd5b565b5f819050919050565b61010f816100fd565b82525050565b5f6020820190506101285f830184610106565b92915050565b5f82825260208201905092915050565b7f4469646e27742073656e6420656e6f75676820455448000000000000000000005f82015250565b5f61017260168361012e565b915061017d8261013e565b602082019050919050565b5f6020820190508181035f83015261019f81610166565b905091905056fea2646970667358221220b1aa568c614213d775025741c57fbdb853ccc40f80b3423c8b226a9a0f427c4964736f6c63430008180033",
					"opcodes": "PUSH1 0x80 PUSH1 0x40 MSTORE PUSH1 0x5 PUSH0 SSTORE CALLVALUE DUP1 ISZERO PUSH2 0x13 JUMPI PUSH0 DUP1 REVERT JUMPDEST POP PUSH2 0x1DC DUP1 PUSH2 0x21 PUSH0 CODECOPY PUSH0 RETURN INVALID PUSH1 0x80 PUSH1 0x40 MSTORE PUSH1 0x4 CALLDATASIZE LT PUSH2 0x33 JUMPI PUSH0 CALLDATALOAD PUSH1 0xE0 SHR DUP1 PUSH4 0x98DE820 EQ PUSH2 0x37 JUMPI DUP1 PUSH4 0x98D5FDCA EQ PUSH2 0x61 JUMPI DUP1 PUSH4 0xB60D4288 EQ PUSH2 0x8B JUMPI JUMPDEST PUSH0 DUP1 REVERT JUMPDEST CALLVALUE DUP1 ISZERO PUSH2 0x42 JUMPI PUSH0 DUP1 REVERT JUMPDEST POP PUSH2 0x4B PUSH2 0x95 JUMP JUMPDEST PUSH1 0x40 MLOAD PUSH2 0x58 SWAP2 SWAP1 PUSH2 0x115 JUMP JUMPDEST PUSH1 0x40 MLOAD DUP1 SWAP2 SUB SWAP1 RETURN JUMPDEST CALLVALUE DUP1 ISZERO PUSH2 0x6C JUMPI PUSH0 DUP1 REVERT JUMPDEST POP PUSH2 0x75 PUSH2 0x9A JUMP JUMPDEST PUSH1 0x40 MLOAD PUSH2 0x82 SWAP2 SWAP1 PUSH2 0x115 JUMP JUMPDEST PUSH1 0x40 MLOAD DUP1 SWAP2 SUB SWAP1 RETURN JUMPDEST PUSH2 0x93 PUSH2 0xB7 JUMP JUMPDEST STOP JUMPDEST PUSH0 SLOAD DUP2 JUMP JUMPDEST PUSH0 DUP1 PUSH20 0x694AA1769357215DE4FAC081BF1F309ADC325306 SWAP1 POP POP SWAP1 JUMP JUMPDEST PUSH0 SLOAD CALLVALUE LT ISZERO PUSH2 0xFB JUMPI PUSH1 0x40 MLOAD PUSH32 0x8C379A000000000000000000000000000000000000000000000000000000000 DUP2 MSTORE PUSH1 0x4 ADD PUSH2 0xF2 SWAP1 PUSH2 0x188 JUMP JUMPDEST PUSH1 0x40 MLOAD DUP1 SWAP2 SUB SWAP1 REVERT JUMPDEST JUMP JUMPDEST PUSH0 DUP2 SWAP1 POP SWAP2 SWAP1 POP JUMP JUMPDEST PUSH2 0x10F DUP2 PUSH2 0xFD JUMP JUMPDEST DUP3 MSTORE POP POP JUMP JUMPDEST PUSH0 PUSH1 0x20 DUP3 ADD SWAP1 POP PUSH2 0x128 PUSH0 DUP4 ADD DUP5 PUSH2 0x106 JUMP JUMPDEST SWAP3 SWAP2 POP POP JUMP JUMPDEST PUSH0 DUP3 DUP3 MSTORE PUSH1 0x20 DUP3 ADD SWAP1 POP SWAP3 SWAP2 POP POP JUMP JUMPDEST PUSH32 0x4469646E27742073656E6420656E6F7567682045544800000000000000000000 PUSH0 DUP3 ADD MSTORE POP JUMP JUMPDEST PUSH0 PUSH2 0x172 PUSH1 0x16 DUP4 PUSH2 0x12E JUMP JUMPDEST SWAP2 POP PUSH2 0x17D DUP3 PUSH2 0x13E JUMP JUMPDEST PUSH1 0x20 DUP3 ADD SWAP1 POP SWAP2 SWAP1 POP JUMP JUMPDEST PUSH0 PUSH1 0x20 DUP3 ADD SWAP1 POP DUP2 DUP2 SUB PUSH0 DUP4 ADD MSTORE PUSH2 0x19F DUP2 PUSH2 0x166 JUMP JUMPDEST SWAP1 POP SWAP2 SWAP1 POP JUMP INVALID LOG2 PUSH5 0x6970667358 0x22 SLT KECCAK256 0xB1 0xAA JUMP DUP13 PUSH2 0x4213 0xD7 PUSH22 0x25741C57FBDB853CCC40F80B3423C8B226A9A0F427C BLOBHASH PUSH5 0x736F6C6343 STOP ADDMOD XOR STOP CALLER "
				},
				"gasEstimates": {
					"creation": {
						"codeDepositCost": "95200",
						"executionCost": "22244",
						"totalCost": "117444"
					},
					"external": {
						"fund()": "2549",
						"getPrice()": "337",
						"minimumUsd()": "2402"
					}
				},
				"methodIdentifiers": {
					"fund()": "b60d4288",
					"getPrice()": "98d5fdca",
					"minimumUsd()": "098de820"
				}
			},
			"storageLayout": {
				"storage": [
					{
						"astId": 52,
						"contract": "FundMe1.sol:FundMe",
						"label": "minimumUsd",
						"offset": 0,
						"slot": "0",
						"type": "t_uint256"
					}
				],
				"types": {
					"t_uint256": {
						"encoding": "inplace",
						"label": "uint256",
						"numberOfBytes": "32"
					}
				}
			},
			"userdoc": {
				"kind": "user",
				"methods": {},
				"version": 1
			}
		}
	}
}